:020000040000FA
:04000000FEEFFFF020
:020000040001F9
:10FEAA0012001200810EBE6E900E03011A6F540EDC
:10FEBA001B6F120001EE01F1100EEE6AE806FDE179
:10FECA00000184EFFFF0000EC66E000E0401006F01
:10FEDA00800EBE6EC768000E086F1200000E096E13
:10FEEA00000E0A6E000E0B6E000E0C6E000E056EF2
:10FEFA00000E066E000E076E000E086E1200048ECB
:10FF0A0055ECFFF073ECFFF068ECFFF057ECFFF0F4
:10FF1A00BBECFFF056ECFFF0010E126EF40E116E00
:10FF2A009BECFFF08DEFFFF0FEEFFFF003011A519B
:10FF3A007F0B1A6F111C156E121C166E15C513F560
:10FF4A001650146E61004CF418F3610050F419F362
:10FF5A00B1507F0BB16E1A5180091A6FB1AEB8EF6A
:10FF6A00FFF0BAEFFFF0B3EFFFF01200F40E0D1836
:10FF7A0006E10E04D8A4C4EFFFF0C6EFFFF0FBEFD2
:10FF8A00FFF0000E0E6E000E0D6EBE507F0B116E4E
:10FF9A000F50D8A4D3EFFFF0D5EFFFF0D8EFFFF062
:10FFAA0011501124116E0F04D8A4DEEFFFF0E0EF18
:10FFBA00FFF0E3EFFFF0D8901130116E1150800975
:10FFCA00BE6E200E1118D8A4EDEFFFF0EFEFFFF090
:10FFDA00F1EFFFF0010E0F6E1104D8A4F7EFFFF056
:10FFEA00F9EFFFF0FBEFFFF0000E0F6E0D4A0E2A3D
:06FFFA0012005FEFFFF0B2
:020000040020DA
:10000000FF0FFF0FFF0FFF0FFF0FFF0FFF0FFF0F80
:10001000FF0FFF0FFF0FFF0FFF0FFF0FFF0FFF0F70
:020000040030CA
:0A0000008CFEFFFC9FFFFFFFFFFFD7
:00000001FF
