:020000040000FA
:04000000FEEFFFF020
:020000040001F9
:10FF1C0012001200120001EE01F10D0EEE6AE8065D
:10FF2C00FDE10001ABEFFFF0000E096E000E0A6E52
:10FF3C00000E0B6E000E0C6E000E056E000E066EA3
:10FF4C00000E076E000E086E1200048E8EECFFF091
:10FF5C009AECFFF0BCECFFF090ECFFF0D0ECFFF073
:10FF6C008FECFFF0B4EFFFF0FEEFFFF0000EBE6E73
:10FF7C00000ECE6E000EC66E000E0401006F800ED9
:10FF8C00BE6E000EBF6E000ECF6E200EC76E000E42
:10FF9C00086F12003F0EBE18D8A4D7EFFFF0D9EFB0
:10FFAC00FFF0DBEFFFF0800EBE6ECFAAE0EFFFF0AC
:10FFBC00E2EFFFF0FDEFFFF0BE2AD00E0E6E6C0EDE
:10FFCC000F6E040E106E000E116EF2EFFFF00E06A7
:10FFDC00000E0F5A105A115A0E500F10101011100B
:10FFEC00D8A4FBEFFFF0FDEFFFF0EDEFFFF01200F8
:04FFFC0091EFFFF092
:020000040020DA
:10000000FF0FFF0FFF0FFF0FFF0FFF0FFF0FFF0F80
:10001000FF0FFF0FFF0FFF0FFF0FFF0FFF0FFF0F70
:020000040030CA
:0A0000008CFEFFFC9FFFFFFFFFFFD7
:00000001FF
