:020000040000FA
:04000000FEEFFFF020
:020000040001F9
:10FDE4001200900E03011A6F540E1B6F1200800E46
:10FDF400BE6E000E0401006F000EC66EA00E000160
:10FE04007F6F000E7D6F1200048EF2ECFEF015EC95
:10FE1400FFF0F9ECFEF0F3ECFEF055ECFFF00FEF21
:10FE2400FFF0FEEFFFF0000E096E000E0A6E000EEA
:10FE34000B6E000E0C6E000E056E000E066E000EAC
:10FE4400076E000E086E120003011A517F0B1A6F21
:10FE54000E1C106E0F1C116E610040F418F311504B
:10FE6400196FB1507F0BB16E1A5180091A6F1200CD
:10FE7400FC0EF66EFE0EF76E010EF86E01EE00F249
:10FE840010EE00F10900F5C4EEF4E550E150FAE19A
:10FE9400E250F8E101EE01F10D0EEE6AE806FDE133
:10FEA400000106EFFFF060EFFFF07D51040F7D6F5E
:10FEB400000E0F6E320E0E6E26ECFFF000017D294F
:10FEC400D8A467EFFFF069EFFFF057EFFFF074EF8E
:10FED400FFF07D51FC0F7D6F000E0F6E320E0E6E23
:10FEE40026ECFFF000017D51D8A47BEFFFF07DEFFD
:10FEF400FFF06BEFFFF01200808386898C8F929560
:10FF0400989B9EA2A5A7AAADB0B3B6B9BCBEC1C406
:10FF1400C6C9CBCED0D3D5D7DADCDEE0E2E4E6E85E
:10FF2400EAEBEDEEF0F1F3F4F5F6F8F9FAFAFBFC8E
:10FF3400FDFDFEFEFEFFFFFFFFFFFFFFFEFEFEFDD9
:10FF4400FDFCFBFAFAF9F8F6F5F4F3F1F0EEEDEB5B
:10FF5400EAE8E6E4E2E0DEDCDAD7D5D3D0CECBC9FA
:10FF6400C6C4C1BEBCB9B6B3B0ADAAA7A5A29E9B78
:10FF74009895928F8C898683807C797673706D6A6C
:10FF84006764615D5A5855524F4C494643413E3B64
:10FF9400393634312F2C2A282523211F1D1B1917EC
:10FFA400151412110F0E0C0B0A090706050504039C
:10FFB4000202010101000000000000000101010231
:10FFC40002030405050607090A0B0C0E0F1112148F
:10FFD4001517191B1D1F212325282A2C2F313436D0
:10FFE400393B3E414346494C4F5255585A5D616432
:0CFFF400676A6D707376797C3AEFFFF05D
:020000040020DA
:10000000FF0FFF0FFF0FFF0FFF0FFF0FFF0FFF0F80
:10001000FF0FFF0FFF0FFF0FFF0FFF0FFF0FFF0F70
:020000040030CA
:0A0000008CFEFFFC9FFFFFFFFFFFD7
:00000001FF
